:0C0000000C9446000C9400000C940000CE
:10000C000C9400000C9400000C9400000C94000064
:10001C000C9400000C9400000C9473000C940000E1
:10002C000C9400000C9400000C9400000C94000044
:10003C000C9400000C9400000C9400000C94000034
:10004C000C9400000C940000000000000000000064
:10005C006162636465666768696A6B6C6D6E6F700C
:10006C007172737475767778797A80C008000400A1
:10007C0054001A0060015C0002007B017600000055
:10008C00F894EE27ECBBF1E0FBBFEBBFE5BF8DE0D6
:10009C00A2E0BB27ED938A95E9F780E094E0A0E617
:1000AC00ED930197E9F7E8E7F0E0859195910097DA
:1000BC0061F0A591B59105901590BF01F0010590E7
:1000CC000D920197E1F7FB01F0CFEFE5EDBFE4E016
:1000DC00EEBFC0E6D1E00C94B8000A921A92FA92E4
:1000EC006A937A938A939A93AA93BA93EA93FA931C
:1000FC00EFB7EA93F20131962F01ECEBF2E0E41545
:10010C00F50511F5A0E6B1E0AA0DBB1DAC9170D0C0
:10011C00F50131965F01F40131964F01EDE0F0E00D
:10012C00E815F90529F488249924E1E0F0E03F0171
:10013C008A92A62D46D044245524EAE1F0E0EA1533
:10014C00FB0511F4E0E0E9BFE991EFBFF991E9910A
:10015C00B991A9919991899179916991F990199095
:10016C0009901895EFEFE7BBE0E0E8BBE1E0E3BFF7
:10017C00E0E0E2BFE1E0E9BFA0E150D07894FFCF2E
:10018C00FFCFAA93E8B3EF70AE2FE881E07FEA2BA4
:10019C00E8BB8DE08A95F1F7C29A8DE08A95F1F76C
:1001AC00C2988DE08A95F1F763C0AA93A881E9DF24
:1001BC00E881E295E883A881E4DF85E88A95F1F788
:1001CC0057C0AA93E881F0E0E558FE4FE081A98181
:1001DC00AE0FEBDFD980C88022960895A2E04AD0FA
:1001EC00ACE0E3DFA1E046D0E0E0CE2EDE2E0895B9
:1001FC00AA93A881AA3021F0E0917F01DE1640F08D
:10020C00E0E0EA93C394AC2DDCDFA881AA3081F145
:10021C00D394C09AA881C9DFC0982AC0AA93E7B327
:10022C00E06FE7BBBA9AB89AB99AC298C098C198CD
:10023C00E881E0937F01E058E0937D01E881E05490
:10024C00E0937E01A4E1B0E00E944C0118D017D0DD
:10025C0016D0A0E296DF88EC90E00197F1F7A8E2C7
:10026C00A4DFA4E0A2DFA5E8A0DFA6E09EDFB6DF56
:10027C00219608959ADFA3E0B0E00C944C01A0E322
:10028C0080DF88EC90E00197F1F70895109639F033
:10029C0080ED97E00197F1F7A8951197C9F70895AC
:00000001FF
