:080000000C9435000C94000083
:100008000C9400000C9400000C9400000C94000068
:100018000C9400000C9400000C9400000C94000058
:100028000C9400000C9400000C9400000C94000048
:100038000C9400000C9400000C9400000C94000038
:100048000C9400000C9400000C94000048656C6C43
:100058006F20576F726C640080C0020060016000FE
:100068000000F894EE27ECBBF1E0FBBFEBBFE5BF67
:100078008DE0A2E0BB27ED938A95E9F780E094E054
:10008800A0E6ED930197E9F7E2E6F0E08591959116
:10009800009761F0A591B59105901590BF01F00109
:1000A80005900D920197E1F7FB01F0CFEFE5EDBF69
:1000B800E4E0EEBFC0E6D1E00C946200EFEFE7BBEE
:1000C800E0E0E8BBABE06AD0E0E0EA93A0E025D04E
:1000D800A4E5B0E050D0F8CFFFCFAA93E8B3EF7013
:1000E800AE2FE881E07FEA2BE8BB8DE08A95F1F737
:1000F800C29A8DE08A95F1F7C2988DE08A95F1F75A
:1001080077C0AA93A881E9DFE881E295E883A8810E
:10011800E4DF85E88A95F1F76BC0AA93E881F0E0FF
:10012800E05AFE4FE081A981AE0FEBDFD980C8808D
:1001380022960895A2E05ED0ACE0E3DFA1E05AD0B9
:10014800E0E0CE2EDE2E0895AA93A881AA3021F0F1
:10015800E0916401DE1648F0E0E0EA93C394AC2D28
:10016800DCDFA881AA3009F443C0D394C09AA881DF
:10017800C8DFC0983DC0BA93AA931A93E981FA815F
:100188003196E983FA833197E4911E2FE03019F014
:10019800A12FDADFF3CF188123960895AA93E7B346
:1001A800E06FE7BBBA9AB89AB99AC298C098C19852
:1001B800E881E0936401E058E0936201E881E0544B
:1001C800E0936301A4E1B0E00E940A0118D017D0BF
:1001D80016D0A0E282DF88EC90E00197F1F7A8E260
:1001E80090DFA4E08EDFA5E88CDFA6E08ADFA2DF3F
:1001F8002196089586DFA3E0B0E00C940A01A0E3FD
:100208006CDF88EC90E00197F1F70895109639F0CB
:1002180080ED97E00197F1F7A8951197C9F7089530
:00000001FF
