:040000000C942A0032
:100004000C9400000C9400000C9400000C9400006C
:100014000C9400000C9400000C9400000C9400005C
:100024000C9400000C9400000C9400000C9400004C
:100034000C9400000C9400000C9400000C9400003C
:100044000C9400000C9400000C9400000C9400002C
:10005400F894EE27ECBBF1E0FBBFEBBFE5BF8DE00E
:10006400A2E0BB27ED938A95E9F780E094E0A0E64F
:10007400ED930197E9F7EFE5EDBFE4E0EEBFC0E6ED
:10008400D1E00C944500EFEFE7BBE0E0EABBE8BB4E
:10009400E9B3E13019F52297E1E0E883E0E0E98390
:1000A400E8B3E03850F4E881E8BBE881F981EE0F69
:1000B400FF1FE883F98314D0F3CFE8B3E13050F0A5
:1000C400E8B3F0E0DF01E2E0F0E00E949700E8BB73
:1000D40007D0F3CF05D0E0E0E8BB2296D9CFFFCF1D
:1000E400A4EFB1E00C947600109639F080ED97E01F
:1000F4000197F1F7A8951197C9F70895F195E1953E
:10010400F04008950024112490E1AA0FBB1F001CA5
:10011400111C0E1A1F0A18F40E0E1F1E01C0A16036
:100124009A9599F7FD01D001089504D0EBDF0EF400
:10013400E5DF0895E894F7FF02C0E0DF6894B7FFB5
:1001440006C0A095B095119600F8039400FA08959E
:00000001FF
