:100000000C943F000C9400000C9400000C94000031
:100010000C9400000C9400000C9400000C94000060
:100020000C946C000C94AF000C9400000C94000035
:100030000C9400000C9400000C9400000C94000040
:100040000C9400000C9400000C9400000C94000030
:100050000C94000000000000000000003F000600BB
:100060005B004F0066006D007D0007007F006F00A1
:10007000080004005400130060015C000000F894C4
:10008000EE27ECBBF1E0FBBFEBBFE5BF8DE0A2E0EC
:10009000BB27ED938A95E9F780E094E0A0E6ED9325
:1000A0000197E9F7E0E7F0E085919591009761F01D
:1000B000A591B59105901590BF01F00105900D92A5
:1000C0000197E1F7FB01F0CFEFE5EDBFE4E0EEBF14
:1000D000C0E6D1E00C94F900AA93BA93EA93FA939C
:1000E000EFB7EA93F30131963F01E4E1F0E0E61562
:1000F000F70551F5A4E7B1E0ED91FD913196FE933E
:10010000EE93E4E0F0E0EA15FB05D4F085D00E9420
:100110001401EA30A0E0FA0779F4D501AA0FBB1F59
:10012000AA58BE4FED91FD913196FE93EE9374D097
:10013000E0E0F0E0ED93FC93F50131965F01E1CF53
:10014000AA24BB2466247724EFEFEDBDE0E0ECBDEC
:10015000E991EFBFF991E991B991A99118950A92A6
:100160001A92AA93BA93EA93FA93EFB7EA93F20139
:1001700031962F01E3E0F0E0E415F50589F5E81983
:10018000F909A4E7B1E0EE0FFF1FAE0FBF1F0E94F9
:100190001401A0E6B1E0EE0FFF1FAE0FBF1FEC9100
:1001A000E2BB082C092811F4EEEF08C0E5B3AFEF6D
:1001B000AE27E2E0EA02F001AFEFEA27E5BBE5B3E4
:1001C000EF3E11F4EEEFE5BB44245524F4013196E3
:1001D0004F01E4E0F0E0E815F90511F488249924D2
:1001E000E991EFBFF991E991B991A991199009901D
:1001F0001895EFEFE4BBE1BBE0E0E2BBEFEFE5BB5E
:10020000E5E0E3BFEEBDEFEFEDBDE0E0ECBDE5E026
:10021000E9BF7894FFCFFFCFF501A4E7B1E0EE0F7F
:10022000FF1FAE0FBF1F0895ED91FC911197089528
:00000001FF
